:100000000C94AF000C94E7000C94CC000C94CC0042
:100010000C94CC000C94CC000C94CC000C94CC0030
:100020000C94CC000C94CC000C94CC000C94CC0020
:100030000C94CC000C94CC000C94CC000C94CC0010
:100040000C94CC000C94CC000C94CC000C94CC0000
:100050000C94CC000C94CC000C94CC000C94CC00F0
:100060000C94CC000C94CC00940DA40DA70D9C0D09
:10007000900DA70DA70DA70DA70DA70DA70DA70DF7
:10008000A70DA70DA70DA70DA70D6C0D880D680D69
:10009000600DA70DA70DA70D640D580D7C0D700DFB
:1000A000840DA70D500DA70DA70DA70D800D8C0D6C
:1000B0005C0D540D740DA70DA70DA70D980DA00D87
:1000C000A70DA70DA70D780D0600FF0901A10115C9
:1000D0000026FF0075089508090082020195200995
:1000E00000B20201C00902220001010080190904C6
:1000F00000000100000000092101010001221D0093
:100100000705810308006412011001FF000008C008
:1001100016DC050201010200011C034E00640048C8
:100120000032004B003100340020004200610064C6
:10013000006700650024037700770077002E0076C3
:1001400000690072007400750061006C006100625B
:100150000073002E006600720004030904001124DD
:100160001FBECFEFD8E0DEBFCDBF15E0A0E0B1E00D
:10017000E0EEF2E202C005900D92A835B107D9F782
:1001800015E0A8E5B5E001C01D92A939B107E1F776
:100190000E941B0E0C946E110C940000A82FB92F16
:1001A00080E090E041E050EA609530E009C02D9198
:1001B00082279795879510F084279527305EC8F39E
:1001C0006F5FA8F30895EADF8D939D930895CF9311
:1001D000CFB7CF93C3954C9BE9F74C9B09C04C9B81
:1001E00007C04C9B05C04C9B03C04C9B01C0A3C0E7
:1001F000DF93C0917C05DD27CD57DA4F4C9B02C0C1
:10020000DF91EBCF2F930F931F9309B12FEF04FBD7
:1002100020F94F933F9319B14FEF012704FB21F9C8
:100220003BE031C04E7F012F19B1216028C0102F53
:100230004D7F2260000009B129C04B7F2460012F4F
:10024000000019B12BC019B1477F28602AC04F7E2A
:1002500009B120612CC04F7D19B120622FC04F7BA6
:1002600009B1206432C0422709B149934FEF000021
:10027000102714FB20F919B11471C9F1297F91F2EB
:10028000012704FB21F909B1237F89F2315058F18C
:10029000102714FB22F919B1277E79F2012704FBFC
:1002A00023F92F7C81F209B1102714FB24F92F794F
:1002B00071F200C019B1012704FB25F92F7359F21F
:1002C00000C009B1102714FB26F9223040F200C00B
:1002D00019B1012704FB27F9243028F64F7720684D
:1002E00019B10000F9CF11E01CBB002719C03B5029
:1002F0003195C31BD04011E01CBB0881033CF9F0D1
:100300000B34E9F020917A051981110F1213EDCF0A
:100310004A81441F093641F10D3211F0013E29F79F
:10032000009381053F914F911F910F912F91DF9184
:10033000CCB3C0FD4FCFCF91CFBFCF9118952091B7
:100340008105222379F310917F05112369F534305B
:100350006AF130937F0520937B0510917C053BE08B
:10036000311B30937C0522C000917F050130E4F4FD
:100370000AE54F7049F43091000134FD19C0009333
:100380000001C3E6D5E018C030916E0534FD10C001
:1003900000936E05CFE6D5E00FC02795A8F4515025
:1003A000A9F4220F0000F9CF4AE503C042ED01C0D5
:1003B000432FC4E1D0E032E01AB114615C9A1AB95B
:1003C0000BB120E414E15F93012756E00BB92795A8
:1003D00020F4515021F4220FF9CF012756E00000FC
:1003E0003B5A0BB9D0F2279528F4515029F4220F2B
:1003F0000000F9CF012756E027950BB920F45150A2
:1004000021F4220FF9CF012756E0299133230BB9AC
:1004100021F60B7E10918005110FC651D0400BB90B
:1004200011F010937A0511E01CBB00611AB11B7E1C
:10043000402F4B7E5F9100C000C00BB91AB94BB979
:1004400071CFAB0160E070E00C94760E0F931F93B8
:10045000CF93DF93CDB7DEB7C756D1400FB6F89430
:10046000DEBF0FBECDBF8C0146E650E0BE016F5F20
:100470007E4F80E090E00E945C0A8636910509F587
:1004800048E050E0B801CE0101960E944E0946E6D0
:1004900050E0BE016F5F7E4FCE0101960E94A90918
:1004A000C959DE4F1882C756D140CE018F5F9E4F8B
:1004B0000E949E0867E670E0CE018F5F9E4F0E940B
:1004C0002102C959DE4F0FB6F894DEBF0FBECDBF73
:1004D000DF91CF911F910F9108958130B9F01CF4F5
:1004E000882339F00895823029F1833009F040C023
:1004F00031C02D9A89E491E00197F1F700C0000026
:100500002D988DED93E00197F1F730C02D9889E497
:1005100091E00197F1F700C000002D9A89E491E085
:100520000197F1F700C000002D9883E992E0019750
:10053000F1F71CC02D9883E992E00197F1F700C014
:1005400000002D9A89E491E00197F1F700C00000C6
:100550002D9808C02D988DED93E00197F1F700C01C
:1005600000002D9A89E491E00197F1F700C00000A6
:100570000895CF93C82F83700E946D028C2F8C70CA
:10058000869586950E946D028C2F807382958F7060
:100590000E946D028C2F992787FD9095807C99276A
:1005A00026E0959587952A95E1F7CF910C946D02F9
:1005B000EF92FF920F931F93CF93DF937B01259AC6
:1005C0002D98EC018C0105C0F80181918F010E94EA
:1005D000B902C8018C1B9D0B8E159F05ACF32D989D
:1005E000DF91CF911F910F91FF90EF900895EF92BF
:1005F000FF920F931F93CF93DF93CDB7DEB7C9550B
:10060000D1400FB6F894DEBF0FBECDBF8C014AE3D8
:1006100050E0BE016F5F7E4F83E090E00E945C0A75
:100620007C014DE150E0BE01645C7E4F84E090E0CF
:100630000E945C0A1E141F040CF048C0181619060C
:100640000CF044C048E050E0B801CE0101960E9491
:100650004E094AE350E0BE016F5F7E4FCE01019626
:100660000E94A909C55CDE4F1882CB53D14048E0F7
:1006700050E0B801CE0101960E944E094DE150E0D4
:10068000BE01645C7E4FCE0101960E94A909C75A43
:10069000DE4F1882C955D140CE018F5F9E4F0E9418
:1006A0009E086BE370E0CE018F5F9E4F0E94210297
:1006B0006DE170E0CE01845C9E4F0E94D8026EE135
:1006C00070E0CE018F5F9E4F0E942102C75ADE4F1D
:1006D0000FB6F894DEBF0FBECDBFDF91CF911F9153
:1006E0000F91FF90EF90089580915805811112C0ED
:1006F00080917A00876080937A0080917C0080648A
:1007000080937C0080917A00806880937A0081E0F9
:10071000809358050895089590917C00907F909360
:100720007C0090917C00982B90937C0080917A00C3
:10073000806480937A0080917A0086FDFCCF80915E
:100740007800089580E00C948C030F931F93CF934F
:10075000DF93EC0100E010E00E94A20389930F5F99
:100760001F4F08301105C1F7DF91CF911F910F91F5
:1007700008950F931F93CF93DF93CDB7DEB7DA952C
:100780000FB6F894DEBF0FBECDBF8C0148E050E03D
:10079000BC01CE0101960E944E0948E050E0B8012C
:1007A000CE0101960E94A909F8018081D3950FB668
:1007B000F894DEBF0FBECDBFDF91CF911F910F9197
:1007C0000895BF92CF92DF92EF92FF920F931F9303
:1007D000CF93DF937C016A01EB018B013EE3B32EE3
:1007E0000EC0C7010E94B9036B2D0E94330EE92F82
:1007F000F0E0E755FC4F8081F80181938F01C8013B
:100800008C1B9D0B8C159D0564F3DF91CF911F917F
:100810000F91FF90EF90DF90CF90BF900895BF921F
:10082000CF92DF92EF92FF920F931F93CF93DF93BC
:100830007C016A01EB018B014AE0B42E0EC0C701B6
:100840000E94B9036B2D0E94330EE92FF0E0E755AB
:10085000FC4F8081F80181938F01C8018C1B9D0B97
:100860008C159D0564F3DF91CF911F910F91FF903F
:10087000EF90DF90CF90BF900895AF92BF92CF924C
:10088000DF92EF92FF920F931F93CF93DF93CDB739
:10089000DEB7CC5CD1400FB6F894DEBF0FBECDBF43
:1008A0006C0180915805811107C00E947403CE012C
:1008B0008B539E4F0E94A50348E050E0BE01645454
:1008C0007E4FCE018B539E4F0E94E103CC53DE4FEF
:1008D0001882C45CD14048E050E0BE016D547E4FA8
:1008E000CE018B539E4F0E940F04C554DE4F1882D9
:1008F000CB5BD14048E050E0BE0164547E4FCE0156
:1009000001960E944E0948E050E0BE016D547E4FB2
:10091000CE0101960E94A909C654DE4F8881CA5BA8
:10092000D1401F928F93C754DE4F8881C95BD1405D
:100930001F928F93C854DE4F8881C85BD1401F92AD
:100940008F93C954DE4F8881C75BD1401F928F932C
:10095000CA54DE4F8881C65BD1401F928F93CB541F
:10096000DE4F8881C55BD1401F928F93CC54DE4F00
:100970008881C45BD1401F928F93CD54DE4F888114
:10098000C35BD1401F928F9387EE93E09F938F9329
:100990001F9281E18F938E0100571E4F1F930F937B
:1009A0000E948B0EC154DE4F2881CF5BD140822F35
:1009B000992787FD90959F932F93C254DE4F2881EE
:1009C000CE5BD140822F992787FD90959F932F93DF
:1009D000C354DE4F2881CD5BD140822F992787FDFC
:1009E00090959F932F93C454DE4F2881CC5BD140C8
:1009F000822F992787FD90959F932F9387EF93E000
:100A00009F938F931F9289E08F937E018FE5E81A61
:100A10008EEFF80AFF92EF920E948B0E0FB6F894B9
:100A2000DEBF0FBECDBF40E750E0BE016F5F7E4F1F
:100A300081E090E00E945C0A5C014DE150E0BE0163
:100A40006E587E4F82E090E00E945C0A1A141B04EC
:100A50000CF092C0181619060CF08EC048E050E059
:100A6000B601CE0101960E944E0940E750E0BE015A
:100A70006F5F7E4FCE0101960E94A909CF58DE4FCD
:100A80001882C157D140CE018F5F9E4F0E949E08B1
:100A900061E770E0CE018F5F9E4F0E94210288E0E7
:100AA00094E00E949E08C7010E949E0885E595E09B
:100AB0000E949E088DE094E00E949E08C8010E945A
:100AC0009E0884E595E00E949E0883E294E00E94DF
:100AD0009E0840E157E268E070E0CE0186559E4FE7
:100AE0000E94E00897FD44C048E050E0BE01645415
:100AF0007E4FCE0101960E944E0948E050E0BE01B3
:100B00006D547E4FCE0101960E94A90948E050E045
:100B1000BE016D547E4FCE0186559E4F0E947D0EC4
:100B2000009751F548E050E0B601CE0101960E94D1
:100B30004E094DE150E0BE016E587E4FCE01019648
:100B40000E94A909C157DE4F1882CF58D140CE016B
:100B50008E589E4F0E949E0884E595E00E949E0854
:100B60006EE170E0CE018E589E4F0E94210204C0BB
:100B70008DE294E00E949E08C453DE4F0FB6F894B5
:100B8000DEBF0FBECDBFDF91CF911F910F91FF90C0
:100B9000EF90DF90CF90BF90AF9008951F93CF93C9
:100BA000DF93CDB7DEB7C15AD3400FB6F894DEBF9E
:100BB0000FBECDBF23E2E6E8F3E0DE01A158BC4F53
:100BC00001900D922A95E1F727E7E1E4F4E0DE01D8
:100BD000A85FBC4F01900D922A95E1F748E050E0E4
:100BE000BC01CE01885F9D4F0E944E0946E750E050
:100BF000BE01685F7C4FCE01885F9D4F0E94A909AE
:100C0000BE01685F7C4FCE0101960E941D0DCE0192
:100C100001960E94320D009759F144E050E0BC016A
:100C2000CE01885F9D4F0E944E0942E250E0BE0116
:100C300061587C4FCE01885F9D4F0E94A909CE016B
:100C400081589C4F0E949E0885E595E00E949E0871
:100C500010E285B1812785B92FEB87E299E0215019
:100C600080409040E1F700C000000E944709F1CFAA
:100C7000CF55DC4F0FB6F894DEBF0FBECDBFDF916E
:100C8000CF911F910895CF93C62F20916E0524FF19
:100C900007C020916F0538E8232720936F0503C014
:100CA0002AE520936E05DC01E0E7F5E09C2F9E0F1E
:100CB0008D918193892F8E1B1816D4F36C2F80E7AA
:100CC00095E00E94E300CC5FC0936E05CF9108953C
:100CD000E9E6F0E0808182608083E89A8BE480938B
:100CE0006F058AE580936E05089580915A0590916D
:100CF0005B05019779F480915C0522E231E0309345
:100D00007E0520937D0522E030E030935B05209343
:100D10005A05089582E291E090937E0580937D05C7
:100D200080E0089580915A0590915B05019711F438
:100D300089E501C08EE480935D058DE595E0909393
:100D40007E0580937D0581E0089521E030E03093B9
:100D50005F0520935E05FC012681209360052093AA
:100D6000610530916205832F90E0820F911D81977C
:100D700020F080E2831B809360058FEF0895FC01D3
:100D80002181233611F40C949206203611F40C9430
:100D90007506213611F40C94A506223649F4FC019F
:100DA000868122E031E030937E0520937D05089511
:100DB00080E00895FC01868122E031E030937E05D9
:100DC00020937D05089520916005261708F4622F71
:100DD000261B2093600530916205FC01432F481BC0
:100DE00005C09191B0E0AE5FBE4F9C939E2FA42FA3
:100DF000AE0F981B9617A8F3630F6093620521113D
:100E000006C082E090E090935F0580935E0581E0EC
:100E1000211180E00895CF93DF9360917F056350A7
:100E200067FDC3C080917C05CCE0D0E0C81BD10930
:100E3000CD57DA4F80917B058D3209F0A4C0683020
:100E400009F0B1C083EC809363058AE580930001CB
:100E5000109259058881807621F0CE010E94BF064C
:100E60007FC09A8110926C058981811106C0109211
:100E70006D052CE635E082E06FC0853019F4909363
:100E8000800567C0863009F04EC08B81813041F407
:100E900087E091E090937E0580937D0582E13FC0DD
:100EA000823041F485EE90E090937E0580937D053D
:100EB00082E235C08330F1F4911108C089E591E0F8
:100EC00090937E0580937D0584E029C0913041F4A4
:100ED00085E391E090937E0580937D0584E21FC0B9
:100EE0009230E1F489E191E090937E0580937D0555
:100EF0008CE115C0813241F487EF90E090937E053C
:100F000080937D0589E00BC0823241F488EC90E04B
:100F100090937E0580937D058DE101C080E090E493
:100F2000909359051DC0883069F0893019F4909369
:100F300082050FC08A3049F08B3059F48BE48093DE
:100F40006F0507C022E835E002C02CE635E081E0FD
:100F500003C02CE635E080E030937E0520937D05CC
:100F60008F3F39F4988197FD8E8190E890935905D1
:100F700007C09F81911104C09E81981708F4892FA2
:100F80008093010110C08091590587FF0CC0CE01EC
:100F90000E94E3068F3F21F48EE18093000103C09D
:100FA00081111092010110927F058091000184FF50
:100FB00046C0809101018F3F09F441C0C82F89309C
:100FC00008F0C8E08C1B809301018091630598E8CC
:100FD000892780936305CC2329F180917D05909129
:100FE0007E052091590526FF0BC0FC01A4E6B5E063
:100FF0002C2F2A0F34913D9331962A13FBCF09C031
:10100000DC01E4E6F5E02C2F2E0F3D9131932E13F9
:10101000FCCF01962C2F2150820F911D90937E05BD
:1010200080937D056C2F84E695E00E94E300CC5F01
:10103000CC3019F08FEF80930101C093000184E15F
:1010400099B1947131F48150D9F7109280051092C2
:101050007A05DF91CF9108950F931F93CF93DF937C
:1010600000D000D0CDB7DEB70AC06B837C83898304
:101070009A830E940B079A8189817C816B812091E0
:101080005A0530915B05232B81F78B01693071057F
:1010900010F008E010E021E030E030935B05209391
:1010A0005A0522E231E0A801BC01C9010E946D0E7F
:1010B00000935C0502C00E940B0780915A05909135
:1010C0005B050297C1F702C00E940B0780916E0575
:1010D00084FFFACF10925B0510925A0581E090E0F0
:1010E0000F900F900F900F90DF91CF911F910F9164
:1010F0000895EF92FF920F931F93CF93DF938C018C
:10110000EB0111C0C830D10528F0289788E0E82EFF
:10111000F12C03C07E01C0E0D0E0B701C8010E94FD
:101120002C080E0D1F1D209769F781E090E0DF91DC
:10113000CF911F910F91FF90EF900895DC010D90DA
:101140000020E9F7BD0161507109681B790B0C940F
:1011500079080F931F93CF93DF9300D0CDB7DEB7FD
:101160008B0106C089839A830E940B079A8189812B
:1011700020915E0530915F052230310599F720916D
:1011800061050115110519F4022F10E011C030E0BE
:10119000201731070CF4890122E031E0A801B901E0
:1011A0000E946D0E1092620510925F0510925E050E
:1011B000C8010F900F90DF91CF911F910F9108956B
:1011C000CF92DF92EF92FF920F931F93CF93DF9313
:1011D00000D0CDB7DEB76B017A0100E010E00FC0A0
:1011E0000F5F1F4FA89589839A830E940B07EBED31
:1011F000F5E03197F1F700C000009A8189812091D4
:101200005E0530915F052230310521F40E151F0572
:1012100028F01FC00E151F0518F3F8CF20916105A7
:10122000C114D10419F4022F10E015C030E086017A
:101230002C153D050CF4890122E031E0A801B9012B
:101240000E946D0E10925F0510925E05109262056D
:1012500002C00FEF1FEFC8010F900F90DF91CF91E9
:101260001F910F91FF90EF90DF90CF9008950E9413
:101270006806549A80E0A895E7EBFBE03197F1F718
:1012800000C000008150B9F75498789408950C94E8
:101290000B0780916E05807190E00895AF92BF9228
:1012A000CF92DF92EF92FF920F931F93CF93DF9332
:1012B000EC017B016A0141155105E9F161157105E8
:1012C000D1F18C01FC0120E030E021932F5F3F4FF2
:1012D000211581E03807C9F7E0E0F0E090E0A12CAB
:1012E000BB24B394D8014C91242F30E0290F311D39
:1012F000CF01B6010E94530E8E0D9F1DDC018C9113
:10130000280F311D87FD3A95C901B5010E94530E82
:10131000982F9E01280F311DD9018C91D8018D93F2
:101320008D01D9014C933196E115B1E0FB07D1F65F
:1013300020E030E002C021E030E0C901DF91CF9130
:101340001F910F91FF90EF90DF90CF90BF90AF90E3
:1013500008950F931F93CF93DF936115710531F1BA
:101360004115510519F1FB0110E000E016C00F5FB7
:10137000A02FB0E0A80FB91F3C91130FEC01C10FD3
:10138000D11D28812C9338832C91230FEC01C20F9F
:10139000D11D20813881232721939F01261B370BE4
:1013A0002417350724F320E030E002C021E030E0CC
:1013B000C901DF91CF911F910F910895CF92DF92D4
:1013C000EF92FF920F931F93CF93DF93CDB7DEB7CA
:1013D000DA950FB6F894DEBF0FBECDBF6C018B015E
:1013E0007A01CE0101960E944E09F60120E030E01C
:1013F000C901B7010E94530E800F911FDC018C912F
:1014000081932F5F3F4F2830310591F748E050E03E
:10141000B601CE0101960E94A909D3950FB6F894A2
:10142000DEBF0FBECDBFDF91CF911F910F91FF9017
:10143000EF90DF90CF900895FC01DB0180E090E019
:1014400031912D91321307C0019688309105C1F773
:1014500021E030E002C020E030E0C9010895FC0145
:1014600087811F928F9386811F928F9385811F9210
:101470008F9384811F928F9383811F928F93828198
:101480001F928F9381811F928F9380811F928F93E0
:1014900088EB94E09F938F931F9281E18F937F93CA
:1014A0006F930E948B0E8DB79EB746960FB6F89439
:1014B0009EBF0FBE8DBF08950F931F93CF93DF93F1
:1014C0008B01E2E4F1E020E030E0A081B181A817D7
:1014D000B907E1F4DF01AE58BF4F0D90BC91A02DCC
:1014E0004A175B079CF084E7829FE001839FD00D41
:1014F00011249E012C5B3E4FAD01B901C8010E9431
:101500006D0ECC54DE4F2881398109C02F5F3F4FCB
:10151000EC58FF4F25303105C1F62FEF3FEFC901E1
:10152000DF91CF911F910F9108950F931F93CF9348
:10153000DF93EC010E94C60A8C01CE010E94C60A0C
:10154000BC01C8010E94A908BC01CE01DF91CF9166
:101550001F910F910C94E40ACF93DF93EC010E944A
:10156000C60A0E949E08BC01CE01DF91CF910C9467
:10157000E40ACF93C4B1259A0E94C60A892B11F0C0
:101580002D9A01C02D98C4B9CF910895DC01AC5FAC
:10159000BD4F4D915C91119757FD0CC0FA01EE0FB4
:1015A000FF1FE80FF91F20813181415051094D93F0
:1015B0005C9308C0FC01EA5FFD4F808184608083FA
:1015C00020E030E0C9010895DC01AC5FBD4FED9132
:1015D000FC911197EF3FF10541F03CF0FC01EA5F0F
:1015E000FD4F80818460808308953196ED93FC9354
:1015F000EE0FFF1FE80FF91F718360830895DC0170
:10160000BE5FED91FC91119761917191ED93FC9307
:101610000C94E40ADC01BE5FED91FC9111972191DD
:101620003191ED93FC93FC01EE5FFD4F6081718180
:10163000620F731F0C94E40ACF93DF93EC010E94B6
:10164000C60AFC0160817181CE01DF91CF910C94BB
:10165000E40ACF93DF93DC01BE5FED91FC9111971B
:1016600021913191ED93FC93FC01EE5FFD4FC08120
:10167000D181C20FD31F0E94C60A99838883DF914C
:10168000CF9108950F931F93CF93DF93EC010E94A6
:10169000C60A8C01FE01EA5FFD4F808182FD0DC00C
:1016A000CE010E94C60ABC01600F711FCE01DF91FE
:1016B000CF911F910F910C94E40ADF91CF911F916C
:1016C0000F9108950F931F93CF93DF93EC010E9426
:1016D000C60A8C01FE01EA5FFD4F808182FD0DC0CC
:1016E000CE010E94C60ABC01601B710BCE01DF91C6
:1016F000CF911F910F910C94E40ADF91CF911F912C
:101700000F9108950F931F93CF93DF93EC010E94E5
:10171000C60A8C01FE01EA5FFD4F808182FD0DC08B
:10172000CE010E94C60AB8010E943F0ECE01DF9191
:10173000CF911F910F910C94E40ADF91CF911F91EB
:101740000F9108950F931F93CF93DF93EC010E94A5
:10175000C60A8C01FE01EA5FFD4F808182FD11C047
:10176000CE010E94C60A809FB001819F700D909F9C
:10177000700D1124CE01DF91CF911F910F910C9428
:10178000E40ADF91CF911F910F9108950F931F935A
:10179000CF93DF93EC010E94C60A8C01FE01EA5F41
:1017A000FD4F808182FD0DC0CE010E94C60ABC01A2
:1017B00060237123CE01DF91CF911F910F910C9483
:1017C000E40ADF91CF911F910F9108950F931F931A
:1017D000CF93DF93EC010E94C60A8C01FE01EA5F01
:1017E000FD4F808182FD0DC0CE010E94C60ABC0162
:1017F000602B712BCE01DF91CF911F910F910C9433
:10180000E40ADF91CF911F910F9108950F931F93D9
:10181000CF93DF93EC010E94C60A8C01FE01EA5FC0
:10182000FD4F808182FD0DC0CE010E94C60ABC0121
:1018300060277127CE01DF91CF911F910F910C94FA
:10184000E40ADF91CF911F910F910895CF93DF9319
:10185000EC010E94C60ABC0160957095CE01DF9133
:10186000CF910C94E40AEF92FF920F931F93CF93C2
:10187000DF937C010E94C60A8C01E701CA5FDD4F3D
:10188000888182FD16C0C7010E94C60A288122FDF8
:1018900010C00817190711F481E00AC008171907CA
:1018A00010F480E105C018828017910710F488E0D9
:1018B0008883DF91CF911F910F91FF90EF90089552
:1018C000EF92FF920F931F93CF93DF938C010E94AF
:1018D000C60A7C01E801CA5FDD4F888182FD0DC028
:1018E000C8010E94C60A288122FD07C0E816F90631
:1018F00011F4216001C02E7F2883DF91CF911F91C9
:101900000F91FF90EF900895FC01FE5F608171815F
:101910000C94E40AFC01FE5FA081B1819D012E5F61
:101920003F4F8D919C91280F391F3183208308955B
:10193000CF93DF93DC01BE5FED91FC911197219174
:1019400031911196FC93EE93EC01CA5FDD4F8881D3
:1019500080FF04C0E20FF31FED93FC93DF91CF9162
:101960000895CF93DF93DC01BE5FED91FC91119759
:10197000219131911196FC93EE93EC01CA5FDD4FFA
:10198000888180FD04C0E20FF31FED93FC93DF918B
:10199000CF910895CF93DF93DC01BE5FED91FC9171
:1019A0001197219131911196FC93EE93EC01CA5F4E
:1019B000DD4F888183FF04C0E20FF31FED93FC939A
:1019C000DF91CF910895CF93DF93DC01BE5FED915E
:1019D000FC911197219131911196FC93EE93EC01BA
:1019E000CA5FDD4F888184FF04C0E20FF31FED93CF
:1019F000FC93DF91CF910895CF93DF93EC010E9488
:101A0000C60A8235910539F08735910549F08C3445
:101A1000910581F40AC0CE01DF91CF910C94950A13
:101A2000CE01DF91CF910C94AC0ACE01DF91CF9122
:101A30000C94B90ADF91CF910895FC01FE5F718388
:101A40006083FC01EE5FFD4F71836083FC01EC5FFE
:101A5000FD4F2FEF3FEF31832083FC01EA5FFD4F05
:101A600010820895EF92FF920F931F93CF93DF930D
:101A7000EC018C011E5F7C018AEFE81A8DEFF80AF9
:101A800066C0552747FD5095652F752FFA01F097D1
:101A9000E033F10508F05BC0EC5CFF4F0C94670E7F
:101AA000CE010E94420B53C0CE010E94620B4FC078
:101AB000CE010E94820B4BC0CE010E94A20B47C0F8
:101AC000CE010E94C60B43C0CE010E94E60B3FC070
:101AD000CE010E94060C3BC0CE010E94260C37C0EE
:101AE000CE010E94330C33C0CE010E94600C2FC087
:101AF000CE010E94840C2BC0CE010E948A0C27C00C
:101B0000CE010E94B10C23C0CE010E94980C1FC0D0
:101B1000CE010E94CA0C1BC0CE010E94E30C17C06C
:101B2000CE010E94FC0C13C0CE010E94FF0A0FC020
:101B3000CE010E940A0B0BC0CE010E941C0B07C0F5
:101B4000CE010E94290B03C0CE010E94C60AD80113
:101B5000ED91FC9111974191ED93FC93423321F06B
:101B6000F701808182FF8DCFCE01DF91CF911F9150
:101B70000F91FF90EF900C94C60A0F931F93CF9391
:101B8000DF93CDB7DEB761970FB6F894DEBF0FBE17
:101B9000CDBF89ED94E00E949E088E010F5F1F4F1C
:101BA00089E0F80111928A95E9F769E070E0C801CF
:101BB0000E94A90848E050E0B801CE010A960E94B0
:101BC000DE0967EE74E0CE010A960E941C0A892B9A
:101BD00021F0C8010E94260223C060EF74E0CE010C
:101BE0000A960E941C0A892B21F0C8010E943D041C
:101BF00017C069EF74E0CE010A960E941C0A892B77
:101C000021F0C8010E94F7020BC062E075E0CE012E
:101C10000A960E941C0A892B19F0C8010E94CE0561
:101C200061960FB6F894DEBF0FBECDBFDF91CF91A6
:101C30001F910F9108958FE295E70197F1F700C08A
:101C40000000259A88E083B90E9437098BE095E06F
:101C50000E949E088DE295E00E949E080E94BD0DA4
:101C60000E944709FBCF991B79E004C0991F961782
:101C700008F0961B881F7A95C9F780950895AA1BCE
:101C8000BB1B51E107C0AA1FBB1FA617B70710F067
:101C9000A61BB70B881F991F5A95A9F78095909599
:101CA000BC01CD01089597FB072E16F4009407D0D0
:101CB00077FD09D00E943F0E07FC05D03EF49095B9
:101CC00081959F4F0895709561957F4F0895EE0F10
:101CD000FF1F0590F491E02D0994FB01DC0102C087
:101CE00001900D9241505040D8F70895DC0101C099
:101CF0006D9341505040E0F70895FB01DC014150E5
:101D0000504030F08D910190801919F40020B9F7FE
:101D1000881B990B0895AEE0B0E0E1E9FEE00C9479
:101D200045110D891E898F89988D26E02C831A8391
:101D3000098397FF02C080E090E801979E838D831E
:101D4000CE014B96AC01698D7A8DCE0101960E9431
:101D5000BB0E4D815E8157FD0AC02F813885421729
:101D600053070CF49A01F801E20FF31F10822E962C
:101D7000E4E00C946111ACE0B0E0E1ECFEE00C9426
:101D800037117C016B018A01FC0117821682838165
:101D900081FFC6C188248394912C8C0E9D1EF7016F
:101DA0009381F60193FD859193FF81916F018823C3
:101DB00009F4B2C1853239F493FD859193FF819185
:101DC0006F01853229F4B70190E00E94AD10E7CF92
:101DD000512C312C20E02032A8F48B3261F028F411
:101DE000803251F0833271F40BC08D3239F0803380
:101DF00049F4216028C02260246025C0286023C0E7
:101E0000206121C027FD27C0382F30533A3078F4A5
:101E100026FF06C0FAE05F9E300D1124532E13C03A
:101E20008AE0389E300D1124332E20620CC08E3291
:101E300021F426FD71C1206406C08C3611F420689F
:101E400002C0883641F4F60193FD859193FF81919C
:101E50006F018111C0CF982F9554933018F0905294
:101E6000933028F40C5F1F4FFFE3F9830DC08336D6
:101E700031F0833771F0833509F05EC023C0F8017B
:101E8000808189830E5F1F4F44244394512C540159
:101E900015C03801F2E06F0E711CF801A080B1800E
:101EA00026FF03C0652D70E002C06FEF7FEFC50114
:101EB0002C870E94A2102C0183012C856FE7262E0F
:101EC000222218C03801F2E06F0E711CF801A080C8
:101ED000B18026FF03C0652D70E002C06FEF7FEF79
:101EE000C5012C870E9497102C012C8550E8252EC7
:101EF000222A830123FC1CC006C0B70180E290E0C7
:101F00000E94AD103A94832D90E048165906A8F32C
:101F10000FC0F50127FC859127FE81915F01B70174
:101F200090E00E94AD1031103A94F1E04F1A510840
:101F30004114510471F7EDC0843611F0893641F532
:101F4000F80127FF07C060817181828193810C5F56
:101F50001F4F08C060817181882777FD8095982F79
:101F60000E5F1F4F4FE6B42EB22297FF09C0909527
:101F70008095709561957F4F8F4F9F4FF0E8BF2AF6
:101F80002AE030E0A4010E94D910A82EA81843C06E
:101F9000853731F43FEEB32EB2222AE030E024C080
:101FA00099EFB92EB2228F36B9F020F4883509F0B6
:101FB000B3C00DC0803721F0883709F0ADC002C032
:101FC00020E1B22AB4FE0BC084E0B82A08C024FF86
:101FD00009C0E6E0BE2A06C028E030E005C020E1E6
:101FE00030E002C020E132E0F801B7FE07C06081B6
:101FF0007181828193810C5F1F4F06C06081718166
:1020000080E090E00E5F1F4FA4010E94D910A82E1F
:10201000A818FFE7BF22B6FE0BC02B2D2E7FA514FC
:1020200050F4B4FE0AC0B2FC08C02B2D2E7E05C0B1
:102030007A2C2B2D03C07A2C01C0752C24FF0DC0E7
:10204000FE01EA0DF11D8081803311F4297E09C063
:1020500022FF06C07394739404C0822F867809F01F
:10206000739423FD14C020FF0FC05A2C731460F426
:10207000530C5718732C08C0B70180E290E02C87EE
:102080000E94AD1073942C857314B0F304C07314C4
:1020900010F4371801C0312C24FF12C0B70180E3BF
:1020A00090E02C870E94AD102C8522FF1EC021FFDE
:1020B00003C088E590E002C088E790E0B7010CC05B
:1020C000822F867891F021FD02C080E201C08BE270
:1020D00027FD8DE2B70190E00E94AD1006C0B70168
:1020E00080E390E00E94AD105A94A514C0F3AA9426
:1020F000F401EA0DF11DB701808190E00E94AD105E
:10210000A110F5CF06C0B70180E290E00E94AD10AB
:102110003A943110F8CF43CEF7012681378102C0BF
:102120002FEF3FEFC9012C96E2E10C945311FC0113
:102130000590615070400110D8F7809590958E0FF2
:102140009F1F0895FC016150704001900110D8F765
:10215000809590958E0F9F1F08950F931F93CF9397
:10216000DF938C01EB018B8181FD03C00FEF1FEF2B
:102170001AC082FF0DC02E813F818C819D8128175E
:10218000390764F4E881F9810193F983E88306C093
:10219000E885F985802F0995892B41F78E819F81EC
:1021A00001969F838E83C801DF91CF911F910F917C
:1021B0000895FA01AA27283051F1203181F1E894DD
:1021C0006F936E7F6E5F7F4F8F4F9F4FAF4FB1E02A
:1021D0003ED0B4E03CD0670F781F891F9A1FA11D25
:1021E000680F791F8A1F911DA11D6A0F711D811D26
:1021F000911DA11D20D009F468943F912AE0269FEB
:1022000011243019305D3193DEF6CF010895462F49
:102210004770405D4193B3E00FD0C9F7F6CF462F2A
:102220004F70405D4A3318F0495D31FD4052419393
:1022300002D0A9F7EACFB4E0A69597958795779550
:102240006795BA95C9F700976105710508959B01D7
:10225000AC010A2E06945795479537952795BA9560
:10226000C9F7620F731F841F951FA01D08952F9239
:102270003F924F925F926F927F928F929F92AF9216
:10228000BF92CF92DF92EF92FF920F931F93CF9363
:10229000DF93CDB7DEB7CA1BDB0B0FB6F894DEBFFA
:1022A0000FBECDBF09942A88398848885F846E8420
:1022B0007D848C849B84AA84B984C884DF80EE806A
:1022C000FD800C811B81AA81B981CE0FD11D0FB673
:1022D000F894DEBF0FBECDBFED010895F894FFCF97
:1022E0005AFF592055204E4F2044495341535345DE
:1022F0004D424C45204D45203F00000000000000AD
:102300000000776F77207665727920686172647754
:10231000617265206D75636820656C656374726FAA
:102320006E690000829338F705085FA8E6A68C174F
:10233000BDB2C0AA29B3A2FDFCA6F1964BAAC676EF
:10234000E7662A1C3969B23E716599C1F65B06B72A
:102350002F03DC2216F6BEFC0DDD88ADDCF8B9F7E4
:10236000B226776CE45A1A8FC8EDDE413551DE1281
:102370000E2EEC3CF65F0E0D6BE18308BDC3C90B5E
:102380004AF08A1D4AE0AEAD9264000000000000F1
:10239000000000006600010038CF0BE262494A32BB
:1023A0002BB195B2E2E9086B725DADE151C183F7E3
:1023B000A4C220CB63F9CF3FB7F54B26459577965E
:1023C0003693AB00308199544E2D073336F1509D32
:1023D000AD4C782AC0CEDE106AC20ED14DE6FAA806
:1023E00019F0154A99FEB18960A2059D72325FA766
:1023F000D970C18A21B1C91963418060F0011443C9
:10240000F084A331736049E7700002004B974EB629
:10241000114D4A243CAB92EBA1EA09783758FEE90A
:1024200051ACCBFBC2A63D9C450000000000000063
:10243000000000000000000000000000000000009C
:10244000000000000000000000000000000000008C
:10245000000000000000000000000000000000007C
:10246000000000000000000000000000000000006C
:102470000000000000000000000000001D0003003C
:10248000CA2F8C2896C21B4FC161EE58205C959BC9
:102490005D1B449F2083BEF339B91905AC9B0DD158
:1024A000B46AD2ADE781BEDB05D07F83E121B3887A
:1024B0003D0F0CB320BBDCB6593F0000000000000C
:1024C000000000000000000000000000000000000C
:1024D00000000000000000000000000000000000FC
:1024E00000000000000000000000000000000000EC
:1024F0003A000400B977C97CE5C61B59D67BE901CF
:10250000635F9488181E179620FCB2BE12A15875FE
:10251000CF000000000000000000000000000000EC
:1025200000000000000000000000000000000000AB
:10253000000000000000000000000000000000009B
:10254000000000000000000000000000000000008B
:10255000000000000000000000000000000000007B
:10256000000000001D00061F5D1635F507E47A2700
:10257000BDCDFB67F6AB663A457248AAEDABA50048
:1025800074CE29527883EAF2003031323334353652
:102590003738396162636465666768696A6B6C6D58
:1025A0006E6F707172737475767778797A41424381
:1025B0004445464748494A4B4C4D4E4F5051525363
:1025C0005455565758595A25303278253032782587
:1025D00030327825303278253032782530327825FF
:1025E000303278253032780049563A200052433450
:1025F0002852414E444F4D2C2049562B4B455929CA
:102600003A20000A414E535745523A20000A546975
:102610006D656F757420726561636865642E0A0A62
:1026200000E86EC99667D8EDA334A6ECC6F95D47FD
:10263000E7CC3E92DA31CB9C3D736F31C03CF22D3A
:10264000ED369B3D92CCC9E80AF44AE5C0EA7049F0
:1026500010B0816AB2889773C272F86D5609E2EEC3
:10266000BAA7C6DCDC98EBA39D31C3A5DC4AE3CA5C
:102670005E6451F355AFCEE8DF8BC0ACBCAD016DED
:102680009BB9AB79BDC4BB3780F3BBDE14BFD5EBC0
:10269000CEAA77521CDE88002530325825303258B9
:1026A00025303258253032582530325825303258AE
:1026B00025303258253032580041636365737320EA
:1026C000636F64653A2000F7CB69A7060146FC00FA
:1026D000448473A864406C3400A767806481970FBA
:1026E0005400F064B98708B489B20057656C636F11
:1026F0006D6520746F204E6468326B3134205365F1
:102700006375726520436869702E0A0A004E65770A
:102710002068657265203F2074797065206163636D
:1027200065737320636F6465202748656C70506C17
:082730007A21272E0A0A00009D
:00000001FF
